{
  "_format": "hh-sol-artifact-1",
  "contractName": "LeaseTokens",
  "sourceName": "contracts/LeaseTokens.sol",
  "abi": [
    {
      "inputs": [
        {
          "internalType": "address",
          "name": "_renter",
          "type": "address"
        }
      ],
      "name": "claim",
      "outputs": [],
      "stateMutability": "nonpayable",
      "type": "function"
    },
    {
      "inputs": [],
      "name": "deleteOffer",
      "outputs": [],
      "stateMutability": "nonpayable",
      "type": "function"
    },
    {
      "inputs": [
        {
          "internalType": "address",
          "name": "",
          "type": "address"
        }
      ],
      "name": "leases",
      "outputs": [
        {
          "internalType": "address",
          "name": "token",
          "type": "address"
        },
        {
          "internalType": "address",
          "name": "rentee",
          "type": "address"
        },
        {
          "internalType": "uint256",
          "name": "rentedBal",
          "type": "uint256"
        },
        {
          "internalType": "uint256",
          "name": "tenure",
          "type": "uint256"
        },
        {
          "internalType": "uint256",
          "name": "rent",
          "type": "uint256"
        },
        {
          "internalType": "uint256",
          "name": "start",
          "type": "uint256"
        }
      ],
      "stateMutability": "view",
      "type": "function"
    },
    {
      "inputs": [
        {
          "internalType": "address",
          "name": "_token",
          "type": "address"
        },
        {
          "internalType": "uint256",
          "name": "_rentedBal",
          "type": "uint256"
        },
        {
          "internalType": "uint256",
          "name": "_rent",
          "type": "uint256"
        },
        {
          "internalType": "uint256",
          "name": "_tenure",
          "type": "uint256"
        }
      ],
      "name": "offer",
      "outputs": [],
      "stateMutability": "nonpayable",
      "type": "function"
    },
    {
      "inputs": [
        {
          "internalType": "address",
          "name": "",
          "type": "address"
        }
      ],
      "name": "offers",
      "outputs": [
        {
          "internalType": "address",
          "name": "token",
          "type": "address"
        },
        {
          "internalType": "uint256",
          "name": "rentedBal",
          "type": "uint256"
        },
        {
          "internalType": "uint256",
          "name": "rent",
          "type": "uint256"
        },
        {
          "internalType": "uint256",
          "name": "tenure",
          "type": "uint256"
        }
      ],
      "stateMutability": "view",
      "type": "function"
    },
    {
      "inputs": [
        {
          "internalType": "address",
          "name": "_rentee",
          "type": "address"
        }
      ],
      "name": "take",
      "outputs": [],
      "stateMutability": "payable",
      "type": "function"
    },
    {
      "inputs": [
        {
          "internalType": "address",
          "name": "_recipient",
          "type": "address"
        }
      ],
      "name": "vacate",
      "outputs": [],
      "stateMutability": "nonpayable",
      "type": "function"
    },
    {
      "stateMutability": "payable",
      "type": "receive"
    }
  ],
  "bytecode": "0x608060405234801561001057600080fd5b50611da3806100206000396000f3fe6080604052600436106100745760003560e01c80635f37e97e1161004e5780635f37e97e14610105578063d74d1f431461011c578063dd8a0c561461015e578063f3e962c1146101875761007b565b80631e83409a14610080578063413bf38f146100a95780634d44e663146100e95761007b565b3661007b57005b600080fd5b34801561008c57600080fd5b506100a760048036038101906100a29190611748565b6101b0565b005b3480156100b557600080fd5b506100d060048036038101906100cb9190611748565b6106f1565b6040516100e094939291906119b4565b60405180910390f35b61010360048036038101906100fe9190611748565b610741565b005b34801561011157600080fd5b5061011a610aff565b005b34801561012857600080fd5b50610143600480360381019061013e9190611748565b610e7a565b60405161015596959493929190611953565b60405180910390f35b34801561016a57600080fd5b5061018560048036038101906101809190611748565b610ef6565b005b34801561019357600080fd5b506101ae60048036038101906101a99190611771565b61153e565b005b600073ffffffffffffffffffffffffffffffffffffffff16600160008373ffffffffffffffffffffffffffffffffffffffff1673ffffffffffffffffffffffffffffffffffffffff16815260200190815260200160002060000160009054906101000a900473ffffffffffffffffffffffffffffffffffffffff1673ffffffffffffffffffffffffffffffffffffffff161415610282576040517f08c379a000000000000000000000000000000000000000000000000000000000815260040161027990611a79565b60405180910390fd5b6000600160008373ffffffffffffffffffffffffffffffffffffffff1673ffffffffffffffffffffffffffffffffffffffff1681526020019081526020016000206040518060c00160405290816000820160009054906101000a900473ffffffffffffffffffffffffffffffffffffffff1673ffffffffffffffffffffffffffffffffffffffff1673ffffffffffffffffffffffffffffffffffffffff1681526020016001820160009054906101000a900473ffffffffffffffffffffffffffffffffffffffff1673ffffffffffffffffffffffffffffffffffffffff1673ffffffffffffffffffffffffffffffffffffffff1681526020016002820154815260200160038201548152602001600482015481526020016005820154815250509050806020015173ffffffffffffffffffffffffffffffffffffffff163373ffffffffffffffffffffffffffffffffffffffff1614610416576040517f08c379a000000000000000000000000000000000000000000000000000000000815260040161040d906119f9565b60405180910390fd5b6000816000015190508160a001514261042f9190611b35565b82606001511115610550576000826060015160648460a00151426104539190611b35565b61045d9190611adb565b6104679190611aaa565b9050826020015173ffffffffffffffffffffffffffffffffffffffff166108fc60648386608001516104999190611adb565b6104a39190611aaa565b9081150290604051600060405180830381858888f193505050501580156104ce573d6000803e3d6000fd5b50428360a00181815250508373ffffffffffffffffffffffffffffffffffffffff166108fc60648386608001516105059190611adb565b61050f9190611aaa565b856080015161051e9190611b35565b9081150290604051600060405180830381858888f19350505050158015610549573d6000803e3d6000fd5b50506106ec565b8073ffffffffffffffffffffffffffffffffffffffff166323b872dd8360200151846020015185604001516040518463ffffffff1660e01b81526004016105999392919061191c565b602060405180830381600087803b1580156105b357600080fd5b505af11580156105c7573d6000803e3d6000fd5b505050506040513d601f19601f820116820180604052508101906105eb91906117d4565b50816020015173ffffffffffffffffffffffffffffffffffffffff166108fc83608001519081150290604051600060405180830381858888f1935050505015801561063a573d6000803e3d6000fd5b50600160008473ffffffffffffffffffffffffffffffffffffffff1673ffffffffffffffffffffffffffffffffffffffff168152602001908152602001600020600080820160006101000a81549073ffffffffffffffffffffffffffffffffffffffff02191690556001820160006101000a81549073ffffffffffffffffffffffffffffffffffffffff0219169055600282016000905560038201600090556004820160009055600582016000905550505b505050565b60006020528060005260406000206000915090508060000160009054906101000a900473ffffffffffffffffffffffffffffffffffffffff16908060010154908060020154908060030154905084565b600073ffffffffffffffffffffffffffffffffffffffff166000808373ffffffffffffffffffffffffffffffffffffffff1673ffffffffffffffffffffffffffffffffffffffff16815260200190815260200160002060000160009054906101000a900473ffffffffffffffffffffffffffffffffffffffff1673ffffffffffffffffffffffffffffffffffffffff161415610812576040517f08c379a000000000000000000000000000000000000000000000000000000000815260040161080990611a19565b60405180910390fd5b60008060008373ffffffffffffffffffffffffffffffffffffffff1673ffffffffffffffffffffffffffffffffffffffff1681526020019081526020016000206040518060800160405290816000820160009054906101000a900473ffffffffffffffffffffffffffffffffffffffff1673ffffffffffffffffffffffffffffffffffffffff1673ffffffffffffffffffffffffffffffffffffffff16815260200160018201548152602001600282015481526020016003820154815250509050806040015134101561091a576040517f08c379a000000000000000000000000000000000000000000000000000000000815260040161091190611a59565b60405180910390fd5b6040518060c00160405280826000015173ffffffffffffffffffffffffffffffffffffffff1681526020018373ffffffffffffffffffffffffffffffffffffffff16815260200182602001518152602001826060015181526020018260400151815260200142815250600160003373ffffffffffffffffffffffffffffffffffffffff1673ffffffffffffffffffffffffffffffffffffffff16815260200190815260200160002060008201518160000160006101000a81548173ffffffffffffffffffffffffffffffffffffffff021916908373ffffffffffffffffffffffffffffffffffffffff16021790555060208201518160010160006101000a81548173ffffffffffffffffffffffffffffffffffffffff021916908373ffffffffffffffffffffffffffffffffffffffff16021790555060408201518160020155606082015181600301556080820151816004015560a082015181600501559050506000808373ffffffffffffffffffffffffffffffffffffffff1673ffffffffffffffffffffffffffffffffffffffff168152602001908152602001600020600080820160006101000a81549073ffffffffffffffffffffffffffffffffffffffff021916905560018201600090556002820160009055600382016000905550505050565b600073ffffffffffffffffffffffffffffffffffffffff16600160003373ffffffffffffffffffffffffffffffffffffffff1673ffffffffffffffffffffffffffffffffffffffff16815260200190815260200160002060000160009054906101000a900473ffffffffffffffffffffffffffffffffffffffff1673ffffffffffffffffffffffffffffffffffffffff161415610bd1576040517f08c379a0000000000000000000000000000000000000000000000000000000008152600401610bc890611a79565b60405180910390fd5b6000600160003373ffffffffffffffffffffffffffffffffffffffff1673ffffffffffffffffffffffffffffffffffffffff16815260200190815260200160002060000160009054906101000a900473ffffffffffffffffffffffffffffffffffffffff1690506000600160003373ffffffffffffffffffffffffffffffffffffffff1673ffffffffffffffffffffffffffffffffffffffff1681526020019081526020016000206040518060c00160405290816000820160009054906101000a900473ffffffffffffffffffffffffffffffffffffffff1673ffffffffffffffffffffffffffffffffffffffff1673ffffffffffffffffffffffffffffffffffffffff1681526020016001820160009054906101000a900473ffffffffffffffffffffffffffffffffffffffff1673ffffffffffffffffffffffffffffffffffffffff1673ffffffffffffffffffffffffffffffffffffffff16815260200160028201548152602001600382015481526020016004820154815260200160058201548152505090508173ffffffffffffffffffffffffffffffffffffffff166323b872dd8260200151836020015184604001516040518463ffffffff1660e01b8152600401610da39392919061191c565b602060405180830381600087803b158015610dbd57600080fd5b505af1158015610dd1573d6000803e3d6000fd5b505050506040513d601f19601f82011682018060405250810190610df591906117d4565b506000803373ffffffffffffffffffffffffffffffffffffffff1673ffffffffffffffffffffffffffffffffffffffff168152602001908152602001600020600080820160006101000a81549073ffffffffffffffffffffffffffffffffffffffff021916905560018201600090556002820160009055600382016000905550505050565b60016020528060005260406000206000915090508060000160009054906101000a900473ffffffffffffffffffffffffffffffffffffffff16908060010160009054906101000a900473ffffffffffffffffffffffffffffffffffffffff16908060020154908060030154908060040154908060050154905086565b600073ffffffffffffffffffffffffffffffffffffffff16600160003373ffffffffffffffffffffffffffffffffffffffff1673ffffffffffffffffffffffffffffffffffffffff16815260200190815260200160002060000160009054906101000a900473ffffffffffffffffffffffffffffffffffffffff1673ffffffffffffffffffffffffffffffffffffffff161415610fc8576040517f08c379a0000000000000000000000000000000000000000000000000000000008152600401610fbf90611a79565b60405180910390fd5b6000600160003373ffffffffffffffffffffffffffffffffffffffff1673ffffffffffffffffffffffffffffffffffffffff16815260200190815260200160002060000160009054906101000a900473ffffffffffffffffffffffffffffffffffffffff1690506000600160003373ffffffffffffffffffffffffffffffffffffffff1673ffffffffffffffffffffffffffffffffffffffff1681526020019081526020016000206040518060c00160405290816000820160009054906101000a900473ffffffffffffffffffffffffffffffffffffffff1673ffffffffffffffffffffffffffffffffffffffff1673ffffffffffffffffffffffffffffffffffffffff1681526020016001820160009054906101000a900473ffffffffffffffffffffffffffffffffffffffff1673ffffffffffffffffffffffffffffffffffffffff1673ffffffffffffffffffffffffffffffffffffffff16815260200160028201548152602001600382015481526020016004820154815260200160058201548152505090508060a00151426111619190611b35565b8160600151111561139d576000816060015160648360a00151426111859190611b35565b61118f9190611adb565b6111999190611aaa565b90508273ffffffffffffffffffffffffffffffffffffffff166323b872dd83602001518685604001516040518463ffffffff1660e01b81526004016111e09392919061191c565b602060405180830381600087803b1580156111fa57600080fd5b505af115801561120e573d6000803e3d6000fd5b505050506040513d601f19601f8201168201806040525081019061123291906117d4565b50816020015173ffffffffffffffffffffffffffffffffffffffff168473ffffffffffffffffffffffffffffffffffffffff16141561134757816020015173ffffffffffffffffffffffffffffffffffffffff166108fc606483856080015161129b9190611adb565b6112a59190611aaa565b9081150290604051600060405180830381858888f193505050501580156112d0573d6000803e3d6000fd5b503373ffffffffffffffffffffffffffffffffffffffff166108fc60648385608001516112fd9190611adb565b6113079190611aaa565b84608001516113169190611b35565b9081150290604051600060405180830381858888f19350505050158015611341573d6000803e3d6000fd5b50611397565b816020015173ffffffffffffffffffffffffffffffffffffffff166108fc83608001519081150290604051600060405180830381858888f19350505050158015611395573d6000803e3d6000fd5b505b50611489565b8173ffffffffffffffffffffffffffffffffffffffff166323b872dd8260200151836020015184604001516040518463ffffffff1660e01b81526004016113e69392919061191c565b602060405180830381600087803b15801561140057600080fd5b505af1158015611414573d6000803e3d6000fd5b505050506040513d601f19601f8201168201806040525081019061143891906117d4565b50806020015173ffffffffffffffffffffffffffffffffffffffff166108fc82608001519081150290604051600060405180830381858888f19350505050158015611487573d6000803e3d6000fd5b505b600160003373ffffffffffffffffffffffffffffffffffffffff1673ffffffffffffffffffffffffffffffffffffffff168152602001908152602001600020600080820160006101000a81549073ffffffffffffffffffffffffffffffffffffffff02191690556001820160006101000a81549073ffffffffffffffffffffffffffffffffffffffff021916905560028201600090556003820160009055600482016000905560058201600090555050505050565b6000849050838173ffffffffffffffffffffffffffffffffffffffff1663dd62ed3e33306040518363ffffffff1660e01b815260040161157f9291906118f3565b60206040518083038186803b15801561159757600080fd5b505afa1580156115ab573d6000803e3d6000fd5b505050506040513d601f19601f820116820180604052508101906115cf91906117fd565b1015611610576040517f08c379a000000000000000000000000000000000000000000000000000000000815260040161160790611a39565b60405180910390fd5b60405180608001604052808673ffffffffffffffffffffffffffffffffffffffff168152602001858152602001848152602001838152506000803373ffffffffffffffffffffffffffffffffffffffff1673ffffffffffffffffffffffffffffffffffffffff16815260200190815260200160002060008201518160000160006101000a81548173ffffffffffffffffffffffffffffffffffffffff021916908373ffffffffffffffffffffffffffffffffffffffff1602179055506020820151816001015560408201518160020155606082015181600301559050505050505050565b60008135905061170381611d28565b92915050565b60008151905061171881611d3f565b92915050565b60008135905061172d81611d56565b92915050565b60008151905061174281611d56565b92915050565b60006020828403121561175a57600080fd5b6000611768848285016116f4565b91505092915050565b6000806000806080858703121561178757600080fd5b6000611795878288016116f4565b94505060206117a68782880161171e565b93505060406117b78782880161171e565b92505060606117c88782880161171e565b91505092959194509250565b6000602082840312156117e657600080fd5b60006117f484828501611709565b91505092915050565b60006020828403121561180f57600080fd5b600061181d84828501611733565b91505092915050565b61182f81611b69565b82525050565b6000611842601683611a99565b915061184d82611c0f565b602082019050919050565b6000611865600d83611a99565b915061187082611c38565b602082019050919050565b6000611888602583611a99565b915061189382611c61565b604082019050919050565b60006118ab602283611a99565b91506118b682611cb0565b604082019050919050565b60006118ce601883611a99565b91506118d982611cff565b602082019050919050565b6118ed81611ba7565b82525050565b60006040820190506119086000830185611826565b6119156020830184611826565b9392505050565b60006060820190506119316000830186611826565b61193e6020830185611826565b61194b60408301846118e4565b949350505050565b600060c0820190506119686000830189611826565b6119756020830188611826565b61198260408301876118e4565b61198f60608301866118e4565b61199c60808301856118e4565b6119a960a08301846118e4565b979650505050505050565b60006080820190506119c96000830187611826565b6119d660208301866118e4565b6119e360408301856118e4565b6119f060608301846118e4565b95945050505050565b60006020820190508181036000830152611a1281611835565b9050919050565b60006020820190508181036000830152611a3281611858565b9050919050565b60006020820190508181036000830152611a528161187b565b9050919050565b60006020820190508181036000830152611a728161189e565b9050919050565b60006020820190508181036000830152611a92816118c1565b9050919050565b600082825260208201905092915050565b6000611ab582611ba7565b9150611ac083611ba7565b925082611ad057611acf611be0565b5b828204905092915050565b6000611ae682611ba7565b9150611af183611ba7565b9250817fffffffffffffffffffffffffffffffffffffffffffffffffffffffffffffffff0483118215151615611b2a57611b29611bb1565b5b828202905092915050565b6000611b4082611ba7565b9150611b4b83611ba7565b925082821015611b5e57611b5d611bb1565b5b828203905092915050565b6000611b7482611b87565b9050919050565b60008115159050919050565b600073ffffffffffffffffffffffffffffffffffffffff82169050919050565b6000819050919050565b7f4e487b7100000000000000000000000000000000000000000000000000000000600052601160045260246000fd5b7f4e487b7100000000000000000000000000000000000000000000000000000000600052601260045260246000fd5b7f796f7520617265206e6f74207468652072656e74656500000000000000000000600082015250565b7f6e6f20746f6b656e206865726500000000000000000000000000000000000000600082015250565b7f796f75206861766520746f20617070726f766520636f6e74726f6c206f66207460008201527f6f6b656e73000000000000000000000000000000000000000000000000000000602082015250565b7f796f7520617265206e6f7420706179696e6720656e6f75676820746f206c656160008201527f7365000000000000000000000000000000000000000000000000000000000000602082015250565b7f6e6f206c6561736520666f7220746869732072656e7465720000000000000000600082015250565b611d3181611b69565b8114611d3c57600080fd5b50565b611d4881611b7b565b8114611d5357600080fd5b50565b611d5f81611ba7565b8114611d6a57600080fd5b5056fea26469706673582212206a570d538af56b1004431e45aac0f19bee72ccf8b830fa467c00f7f34e3c27b764736f6c63430008040033",
  "linkReferences": {},
  "deployedLinkReferences": {}
}